{
  "_format": "hh-sol-artifact-1",
  "contractName": "Register",
  "sourceName": "contracts/Register.sol",
  "abi": [
    {
      "inputs": [],
      "stateMutability": "nonpayable",
      "type": "constructor"
    },
    {
      "inputs": [],
      "name": "admin",
      "outputs": [
        {
          "internalType": "address",
          "name": "",
          "type": "address"
        }
      ],
      "stateMutability": "view",
      "type": "function"
    },
    {
      "inputs": [],
      "name": "getAllStudents",
      "outputs": [
        {
          "components": [
            {
              "internalType": "uint256",
              "name": "id",
              "type": "uint256"
            },
            {
              "internalType": "string",
              "name": "name",
              "type": "string"
            }
          ],
          "internalType": "struct Register.Student[]",
          "name": "",
          "type": "tuple[]"
        }
      ],
      "stateMutability": "view",
      "type": "function"
    },
    {
      "inputs": [
        {
          "internalType": "uint256",
          "name": "_id",
          "type": "uint256"
        }
      ],
      "name": "getStudentById",
      "outputs": [
        {
          "internalType": "uint256",
          "name": "",
          "type": "uint256"
        },
        {
          "internalType": "string",
          "name": "",
          "type": "string"
        }
      ],
      "stateMutability": "view",
      "type": "function"
    },
    {
      "inputs": [],
      "name": "getTotalStudents",
      "outputs": [
        {
          "internalType": "uint256",
          "name": "",
          "type": "uint256"
        }
      ],
      "stateMutability": "view",
      "type": "function"
    },
    {
      "inputs": [
        {
          "internalType": "string",
          "name": "_name",
          "type": "string"
        }
      ],
      "name": "registerStudent",
      "outputs": [],
      "stateMutability": "nonpayable",
      "type": "function"
    },
    {
      "inputs": [
        {
          "internalType": "uint256",
          "name": "_id",
          "type": "uint256"
        }
      ],
      "name": "removeStudent",
      "outputs": [],
      "stateMutability": "nonpayable",
      "type": "function"
    },
    {
      "inputs": [],
      "name": "studentCount",
      "outputs": [
        {
          "internalType": "uint256",
          "name": "",
          "type": "uint256"
        }
      ],
      "stateMutability": "view",
      "type": "function"
    },
    {
      "inputs": [
        {
          "internalType": "uint256",
          "name": "",
          "type": "uint256"
        }
      ],
      "name": "studentIds",
      "outputs": [
        {
          "internalType": "uint256",
          "name": "",
          "type": "uint256"
        }
      ],
      "stateMutability": "view",
      "type": "function"
    },
    {
      "inputs": [
        {
          "internalType": "uint256",
          "name": "",
          "type": "uint256"
        }
      ],
      "name": "students",
      "outputs": [
        {
          "internalType": "uint256",
          "name": "id",
          "type": "uint256"
        },
        {
          "internalType": "string",
          "name": "name",
          "type": "string"
        }
      ],
      "stateMutability": "view",
      "type": "function"
    }
  ],
  "bytecode": "0x6080604052348015600f57600080fd5b50336000806101000a81548173ffffffffffffffffffffffffffffffffffffffff021916908373ffffffffffffffffffffffffffffffffffffffff1602179055506114138061005f6000396000f3fe608060405234801561001057600080fd5b50600436106100935760003560e01c806371e174451161006657806371e1744514610133578063c8fb07931461014f578063e581f9ee14610180578063e9e309271461019e578063f851a440146101bc57610093565b806306ead22e1461009857806328bcb51a146100c95780636af83845146100e75780636f28c35514610103575b600080fd5b6100b260048036038101906100ad91906109ea565b6101da565b6040516100c0929190610ab6565b60405180910390f35b6100d1610286565b6040516100de9190610ae6565b60405180910390f35b61010160048036038101906100fc91906109ea565b610290565b005b61011d600480360381019061011891906109ea565b610501565b60405161012a9190610ae6565b60405180910390f35b61014d60048036038101906101489190610c36565b610525565b005b610169600480360381019061016491906109ea565b610656565b604051610177929190610ab6565b60405180910390f35b610188610785565b6040516101959190610ae6565b60405180910390f35b6101a661078b565b6040516101b39190610dd7565b60405180910390f35b6101c4610905565b6040516101d19190610e3a565b60405180910390f35b600160205280600052604060002060009150905080600001549080600101805461020390610e84565b80601f016020809104026020016040519081016040528092919081815260200182805461022f90610e84565b801561027c5780601f106102515761010080835404028352916020019161027c565b820191906000526020600020905b81548152906001019060200180831161025f57829003601f168201915b5050505050905082565b6000600354905090565b60008054906101000a900473ffffffffffffffffffffffffffffffffffffffff1673ffffffffffffffffffffffffffffffffffffffff163373ffffffffffffffffffffffffffffffffffffffff161461031e576040517f08c379a000000000000000000000000000000000000000000000000000000000815260040161031590610f01565b60405180910390fd5b6000600160008381526020019081526020016000206000015403610377576040517f08c379a000000000000000000000000000000000000000000000000000000000815260040161036e90610f6d565b60405180910390fd5b6000806000905060005b6002805490508110156103cc5783600282815481106103a3576103a2610f8d565b5b9060005260206000200154036103bf57809250600191506103cc565b8080600101915050610381565b508061040d576040517f08c379a000000000000000000000000000000000000000000000000000000000815260040161040490611008565b60405180910390fd5b600160008481526020019081526020016000206000808201600090556001820160006104399190610929565b50506000600160028054905061044f9190611057565b90508083146104bb5760006002828154811061046e5761046d610f8d565b5b9060005260206000200154905080600285815481106104905761048f610f8d565b5b9060005260206000200181905550846001600083815260200190815260200160002060000181905550505b60028054806104cd576104cc61108b565b5b60019003818190600052602060002001600090559055600360008154809291906104f6906110ba565b919050555050505050565b6002818154811061051157600080fd5b906000526020600020016000915090505481565b60008054906101000a900473ffffffffffffffffffffffffffffffffffffffff1673ffffffffffffffffffffffffffffffffffffffff163373ffffffffffffffffffffffffffffffffffffffff16146105b3576040517f08c379a00000000000000000000000000000000000000000000000000000000081526004016105aa90610f01565b60405180910390fd5b600060016003546105c491906110e3565b90506040518060400160405280828152602001838152506001600083815260200190815260200160002060008201518160000155602082015181600101908161060d91906112c3565b5090505060028190806001815401808255809150506001900390600052602060002001600090919091909150556003600081548092919061064d90611395565b91905055505050565b6000606060006001600085815260200190815260200160002060000154036106b3576040517f08c379a00000000000000000000000000000000000000000000000000000000081526004016106aa90610f6d565b60405180910390fd5b600060016000858152602001908152602001600020604051806040016040529081600082015481526020016001820180546106ed90610e84565b80601f016020809104026020016040519081016040528092919081815260200182805461071990610e84565b80156107665780601f1061073b57610100808354040283529160200191610766565b820191906000526020600020905b81548152906001019060200180831161074957829003601f168201915b5050505050815250509050806000015181602001519250925050915091565b60035481565b6060600060028054905067ffffffffffffffff8111156107ae576107ad610b0b565b5b6040519080825280602002602001820160405280156107e757816020015b6107d4610969565b8152602001906001900390816107cc5790505b50905060005b6002805490508110156108fd57600160006002838154811061081257610811610f8d565b5b906000526020600020015481526020019081526020016000206040518060400160405290816000820154815260200160018201805461085090610e84565b80601f016020809104026020016040519081016040528092919081815260200182805461087c90610e84565b80156108c95780601f1061089e576101008083540402835291602001916108c9565b820191906000526020600020905b8154815290600101906020018083116108ac57829003601f168201915b5050505050815250508282815181106108e5576108e4610f8d565b5b602002602001018190525080806001019150506107ed565b508091505090565b60008054906101000a900473ffffffffffffffffffffffffffffffffffffffff1681565b50805461093590610e84565b6000825580601f106109475750610966565b601f0160209004906000526020600020908101906109659190610983565b5b50565b604051806040016040528060008152602001606081525090565b5b8082111561099c576000816000905550600101610984565b5090565b6000604051905090565b600080fd5b600080fd5b6000819050919050565b6109c7816109b4565b81146109d257600080fd5b50565b6000813590506109e4816109be565b92915050565b600060208284031215610a00576109ff6109aa565b5b6000610a0e848285016109d5565b91505092915050565b610a20816109b4565b82525050565b600081519050919050565b600082825260208201905092915050565b60005b83811015610a60578082015181840152602081019050610a45565b60008484015250505050565b6000601f19601f8301169050919050565b6000610a8882610a26565b610a928185610a31565b9350610aa2818560208601610a42565b610aab81610a6c565b840191505092915050565b6000604082019050610acb6000830185610a17565b8181036020830152610add8184610a7d565b90509392505050565b6000602082019050610afb6000830184610a17565b92915050565b600080fd5b600080fd5b7f4e487b7100000000000000000000000000000000000000000000000000000000600052604160045260246000fd5b610b4382610a6c565b810181811067ffffffffffffffff82111715610b6257610b61610b0b565b5b80604052505050565b6000610b756109a0565b9050610b818282610b3a565b919050565b600067ffffffffffffffff821115610ba157610ba0610b0b565b5b610baa82610a6c565b9050602081019050919050565b82818337600083830152505050565b6000610bd9610bd484610b86565b610b6b565b905082815260208101848484011115610bf557610bf4610b06565b5b610c00848285610bb7565b509392505050565b600082601f830112610c1d57610c1c610b01565b5b8135610c2d848260208601610bc6565b91505092915050565b600060208284031215610c4c57610c4b6109aa565b5b600082013567ffffffffffffffff811115610c6a57610c696109af565b5b610c7684828501610c08565b91505092915050565b600081519050919050565b600082825260208201905092915050565b6000819050602082019050919050565b610cb4816109b4565b82525050565b600082825260208201905092915050565b6000610cd682610a26565b610ce08185610cba565b9350610cf0818560208601610a42565b610cf981610a6c565b840191505092915050565b6000604083016000830151610d1c6000860182610cab565b5060208301518482036020860152610d348282610ccb565b9150508091505092915050565b6000610d4d8383610d04565b905092915050565b6000602082019050919050565b6000610d6d82610c7f565b610d778185610c8a565b935083602082028501610d8985610c9b565b8060005b85811015610dc55784840389528151610da68582610d41565b9450610db183610d55565b925060208a01995050600181019050610d8d565b50829750879550505050505092915050565b60006020820190508181036000830152610df18184610d62565b905092915050565b600073ffffffffffffffffffffffffffffffffffffffff82169050919050565b6000610e2482610df9565b9050919050565b610e3481610e19565b82525050565b6000602082019050610e4f6000830184610e2b565b92915050565b7f4e487b7100000000000000000000000000000000000000000000000000000000600052602260045260246000fd5b60006002820490506001821680610e9c57607f821691505b602082108103610eaf57610eae610e55565b5b50919050565b7f4e6f74207468652061646d696e00000000000000000000000000000000000000600082015250565b6000610eeb600d83610a31565b9150610ef682610eb5565b602082019050919050565b60006020820190508181036000830152610f1a81610ede565b9050919050565b7f53747564656e7420646f6573206e6f7420657869737400000000000000000000600082015250565b6000610f57601683610a31565b9150610f6282610f21565b602082019050919050565b60006020820190508181036000830152610f8681610f4a565b9050919050565b7f4e487b7100000000000000000000000000000000000000000000000000000000600052603260045260246000fd5b7f53747564656e74204944206e6f7420666f756e64000000000000000000000000600082015250565b6000610ff2601483610a31565b9150610ffd82610fbc565b602082019050919050565b6000602082019050818103600083015261102181610fe5565b9050919050565b7f4e487b7100000000000000000000000000000000000000000000000000000000600052601160045260246000fd5b6000611062826109b4565b915061106d836109b4565b925082820390508181111561108557611084611028565b5b92915050565b7f4e487b7100000000000000000000000000000000000000000000000000000000600052603160045260246000fd5b60006110c5826109b4565b9150600082036110d8576110d7611028565b5b600182039050919050565b60006110ee826109b4565b91506110f9836109b4565b925082820190508082111561111157611110611028565b5b92915050565b60008190508160005260206000209050919050565b60006020601f8301049050919050565b600082821b905092915050565b6000600883026111797fffffffffffffffffffffffffffffffffffffffffffffffffffffffffffffffff8261113c565b611183868361113c565b95508019841693508086168417925050509392505050565b6000819050919050565b60006111c06111bb6111b6846109b4565b61119b565b6109b4565b9050919050565b6000819050919050565b6111da836111a5565b6111ee6111e6826111c7565b848454611149565b825550505050565b600090565b6112036111f6565b61120e8184846111d1565b505050565b5b81811015611232576112276000826111fb565b600181019050611214565b5050565b601f8211156112775761124881611117565b6112518461112c565b81016020851015611260578190505b61127461126c8561112c565b830182611213565b50505b505050565b600082821c905092915050565b600061129a6000198460080261127c565b1980831691505092915050565b60006112b38383611289565b9150826002028217905092915050565b6112cc82610a26565b67ffffffffffffffff8111156112e5576112e4610b0b565b5b6112ef8254610e84565b6112fa828285611236565b600060209050601f83116001811461132d576000841561131b578287015190505b61132585826112a7565b86555061138d565b601f19841661133b86611117565b60005b828110156113635784890151825560018201915060208501945060208101905061133e565b86831015611380578489015161137c601f891682611289565b8355505b6001600288020188555050505b505050505050565b60006113a0826109b4565b91507fffffffffffffffffffffffffffffffffffffffffffffffffffffffffffffffff82036113d2576113d1611028565b5b60018201905091905056fea2646970667358221220a7718e94ee6e990398642c88e47dd53498b6d5b09e9674caf697084351a4731364736f6c634300081c0033",
  "linkReferences": {},
  "deployedLinkReferences": {}
}